S00E00007461736B34632E73726563CC
S11300000C9434000C943E000C943E000C943E007E
S11300100C943E000C943E000C943E000C943E0064
S11300200C943E000C943E000C943E000C943E0054
S11300300C943E000C9440000C943E000C943E0042
S11300400C943E000C943E000C943E000C943E0034
S11300500C943E000C943E000C943E000C943E0024
S11300600C943E000C943E0011241FBECFEFD8E048
S1130070DEBFCDBF0E9457000C9467000C940000B3
S11300801F920F920FB60F9211248F939F9385B1F5
S1130090809585B98FE598EF9093850080938400CF
S11300A09F918F910F900FBE0F901F90189584E031
S11300B08AB981E080936F0085E0809381008FE5A9
S11300C098EF90938500809384007894FFCFF89400
S10500D0FFCF5C
S9030000FC
