S01000006C616230345F30322E73726563C0
S11300000C9434000C943E000C943E000C943E007E
S11300100C943E000C943E000C943E000C943E0064
S11300200C943E000C943E000C943E000C943E0054
S11300300C943E000C943E000C943E000C943E0044
S11300400C943E000C943E000C943E000C943E0034
S11300500C943E000C943E000C943E000C943E0024
S11300600C943E000C943E0011241FBECFEFD8E048
S1130070DEBFCDBF0E9440000C945E000C940000D3
S1130080229A81E49FE0909387008093860080EA1F
S113009097E090938B0080938A00E0E8F0E0808101
S11300A0806B8083808182608083E1E8F0E08081DE
S11300B088618083808185608083FFCFF894FFCF3F
S9030000FC
