:100000000C9434000C9440000C943E000C943E0080
:100010000C943E000C943E000C943E000C943E0068
:100020000C943E000C943E000C943E000C943E0058
:100030000C943E000C943E000C943E000C943E0048
:100040000C943E000C943E000C943E000C943E0038
:100050000C943E000C943E000C943E000C943E0028
:100060000C943E000C943E0011241FBECFEFD8E04C
:10007000DEBFCDBF0E9469000C9473000C94000099
:100080001F920F920FB60F9211242F933F938F93CD
:100090009F932FEF34E38CE0215030408040E1F714
:1000A00000C0000085B19FEF95B99FEF29E638E1C8
:1000B000915020403040E1F700C0000015B885B9EC
:1000C0009F918F913F912F910F900FBE0F901F9096
:1000D0001895219A1AB8E89AE9E6F0E080818360E1
:0A00E00080837894FFCFF894FFCFDF
:00000001FF
